:02000000712964
:10000800FF00030E8301C5000A08C6008A017008B4
:10001800A3007B08A2007C08A1007D08A0000408BA
:10002800A4008B1CA8288B100B123F080319632807
:100038000130BD003C3086001030C3000030C400E1
:10004800BE01C920861C2F288B1C2E288B1001303E
:10005800C0002F282628400803193428C001A728E3
:100068000330C3000030C40080304406F000803004
:100078007002031D412800304302031C5D288601DD
:100088004308253E840000088700B9200B30FB0098
:100098002630FC005D30FD00FD0B5028FC0B50287D
:1000A800FB0B5028000000000130C302031CC403EE
:1000B80038283F080130031D0030BF00A628BD01C5
:1000C8003C3086001830C3000030C4000130BE0048
:1000D800DB20861C76288B1C75288B100130C0000D
:1000E80076286D28400803197B28C001A72803300B
:1000F800C3000030C40080304406F0008030700235
:10010800031D882800304302031CA12886014308E8
:100118008700D2200B30FB002630FC005D30FD004C
:10012800FD0B9428FC0B9428FB0B9428000000007E
:100138000130C302031CC4037F283F080130031D9C
:100148000030BF0019280B162308F0002208FB0016
:100158002108FC002008FD002408840046088A00C5
:0A016800450E8300FF0E7F0E090014
:1001720083120313081088140811881508128812B4
:02018200080073
:0E0184008312031342088A004108820008001B
:100192008312031308108810081588150812881294
:0201A200080053
:1001A4008312031308148810081188110816881282
:0201B400080041
:1001B6008312031308148810081188110812881670
:0201C60008002F
:1001C800013083120313BF000F30C3000030C40096
:1001D80080304406F00080307002031DF52800309E
:1001E8004302031C23293E080319FC28BE012329C6
:1001F80086014308253E8400000887008030F0000F
:10020800803044067002031D0B294308033C031881
:100218000F29C9201029B9200B30FB002630FC001B
:100228005D30FD00FD0B1629FC0B1629FB0B16296A
:10023800000000000130C302031CC403EC280800BE
:10024800C2208A110A128000840AC10A0319C20A4C
:08025800F003031D2429080036
:1002600083120313BF011730C3000030C400803075
:100270004406F00080307002031D40290030430224
:10028000031C70293E08031D49293D08031949290B
:10029000702986014308253E8400000887008030CD
:1002A000F000803044067002031D58294308033CC7
:1002B00003185C29DB205D29D2200B30FB0026309F
:1002C000FC005D30FD00FD0B6329FC0B6329FB0B7B
:1002D0006329000000000130C302031CC403372956
:0202E000080014
:1002E20083120313A5010130A6000230A7000330D8
:1002F200A8000430A9000530AA000630AB00073080
:10030200AC000830AD000930AE001030AF00113043
:10031200B0001230B1001330B2001430B300153007
:10032200B4001630B5001730B6001830B7001930D7
:10033200B8002030B9002130BA002230BB0023308F
:10034200BC00BD01BE01BF018316870188010330D5
:1003520086000B168B1701133021E420AD29B0293A
:02400E004A2F37
:00000001FF
